:020000040800F2
:100000007826002089010008C9040008D9030008E7
:10001000DD03000843020008430F00080000000051
:100020000000000000000000000000007D0A000841
:100030004702000800000000D5080008710C000805
:10004000A3010008A3010008A3010008A301000800
:10005000A3010008A3010008A3010008A3010008F0
:10006000A3010008A3010008A3010008A3010008E0
:10007000A3010008A3010008A3010008A3010008D0
:10008000A3010008A3010008A3010008A3010008C0
:10009000A3010008A3010008A3010008A3010008B0
:1000A000A3010008A3010008A3010008A3010008A0
:1000B000A3010008A3010008A3010008A301000890
:1000C000A3010008A3010008A3010008A301000880
:1000D000A3010008D50C0008A3010008A301000833
:1000E000A3010008A3010008A301000800F002F822
:1000F00000F03AF80AA090E8000C82448344AAF188
:100100000107DA4501D100F02FF8AFF2090EBAE885
:100110000F0013F0010F18BFFB1A43F0010318473B
:10012000BC140000DC140000103A24BF78C878C169
:10013000FAD8520724BF30C830C144BF04680C60ED
:10014000704700000023002400250026103A28BF35
:1001500078C1FBD8520728BF30C148BF0B60704739
:100160001FB51FBD10B510BD00F031F81146FFF7E7
:10017000F7FF00F02BFF00F04FF803B4FFF7F2FF9A
:1001800003BC00F057F800000948804709480047C1
:10019000FEE7FEE7FEE7FEE7FEE7FEE7FEE7FEE737
:1001A000FEE7FEE704480549054A064B7047000094
:1001B000750C0008ED00000878200020782600204B
:1001C00078220020782200207047704770477546DB
:1001D00000F02CF8AE4605006946534620F00700B3
:1001E000854618B020B5FFF7DDFFBDE820404FF091
:1001F00000064FF000074FF000084FF0000B21F011
:100200000701AC46ACE8C009ACE8C009ACE8C009DD
:10021000ACE8C0098D46704710B50446AFF30080C6
:100220002046BDE81040FFF7A8BF00000048704717
:100230001820002001491820ABBEFEE7260002006E
:10024000704700BFFEE7704700B5034603E04FF478
:100250007A7000F011F8181EA3F10103F7D100BD68
:1002600010B5044603E04FF47A70FFF7EDFF201E4F
:10027000A4F10104F7D110BD00EBC001C9004FF09B
:10028000E0225161002191610521116100BF4FF011
:10029000E021096901F480310029F8D004214FF0F0
:1002A000E022116170472DE9F04102460025002649
:1002B000002000230024002791F803C00CF00F0554
:1002C00091F803C00CF0100CBCF1000F03D091F8B2
:1002D00002C04CEA050591F800C0BCF1000F31D016
:1002E000146800202BE04FF0010C0CFA00F3B1F879
:1002F00000C00CEA03069E4220D183004FF00F0C91
:100300000CFA03F7BC4305FA03FC4CEA040491F829
:1003100003C0BCF1280F06D14FF0010C0CFA00FC11
:10032000C2F814C00AE091F803C0BCF1480F05D12F
:100330004FF0010C0CFA00FCC2F810C0401C082859
:10034000D1D31460B1F800C0BCF1FF0F34DD5468A4
:1003500000202EE000F1080C4FF0010808FA0CF321
:10036000B1F800C00CEA03069E4221D183004FF091
:100370000F0C0CFA03F7BC4305FA03FC4CEA040427
:1003800091F803C0BCF1280F05D100F1080C08FA60
:100390000CF8C2F8148091F803C0BCF1480F07D1E3
:1003A00000F1080C4FF0010808FA0CF8C2F81080B0
:1003B000401C0828CED35460BDE8F08102460020DE
:1003C00093680B400BB1012000E0002070470AB198
:1003D000016100E04161704700BFFEE700BFFEE73A
:1003E00008B50121042000F077FA10208DF80300F1
:1003F000B020ADF8000003208DF8020069460B48DC
:10040000FFF751FF48208DF803004020ADF80000B1
:1004100003208DF8020069460448FFF744FF0120DD
:1004200000F048F8002000F03BF808BD000801404B
:1004300010B540210148FFF7C1FF10BD0008014081
:1004400010B5002000F036F810BD10B5012000F006
:1004500031F810BD70B50446002513E004F08000AB
:1004600000F014F86006040E012000F019F8FFF700
:10047000DFFF012801D144F00104002000F010F852
:10048000681CC5B2082DE9DB204670BD10B50446D6
:10049000224680210148FFF79AFF10BD0008014065
:1004A00010B50446224620210148FFF790FF10BDF9
:1004B0000008014010B50446224610210148FFF70C
:1004C00086FF10BD000801407047000070B5002194
:1004D00000230F22C47804B3154C246804F4E064AC
:1004E000C4F5E064210AC1F10403CA40447804FA67
:1004F00003F184781440214309010E4C0678A1557C
:10050000047804F01F050124AC4005786D11AD009E
:1005100005F1E025C5F8004109E0047804F01F0565
:100520000124AC40044D0678761145F8264070BD94
:100530000CED00E000E400E080E100E0024901434E
:10054000024A1160704700000000FA050CED00E05F
:1005500070B500240EE00021204600F0F0F80025E0
:1005600004E0002000F0A6F9681CC5B2802DF8DB7D
:10057000601CC4B2082CEEDB70BD000008B5012180
:10058000082000F0A9F914208DF8030003208DF84D
:1005900002004FF48070ADF8000069460A48FFF78A
:1005A00082FE4FF40070ADF8000069460648FFF780
:1005B0007AFE012211020448FFF709FF01225102CD
:1005C0000148FFF704FF08BD000C014070B5054667
:1005D000002415E08020204100EA05024FF400715C
:1005E0000E48FFF7F4FE012211020C48FFF7EFFE60
:1005F00000224FF480710948FFF7E9FE601CC4B285
:10060000082CE7DB012211020448FFF7E0FE00227C
:100610004FF480710148FFF7DAFE70BD000C014015
:1006200010B5012251020A48FFF7D1FE0122110242
:100630000748FFF7CCFE00224FF400710448FFF793
:10064000C6FE00224FF480710148FFF7C0FE10BDC6
:10065000000C014010B500224FF400710648FFF76E
:10066000B6FE012211020448FFF7B1FE0122510239
:100670000148FFF7ACFE10BD000C014070B500242E
:1006800006E0002500E06D1CB5F57A7FFBD3641C05
:10069000B4F57A7FF5D3FFF771FFAE2000F0FAF8DA
:1006A000D52000F0F7F8802000F0F4F8A82000F042
:1006B000F1F83F2000F0EEF8D32000F0EBF8002036
:1006C00000F0E8F8402000F0E5F8A12000F0E2F8A2
:1006D000C82000F0DFF8DA2000F0DCF8122000F08B
:1006E000D9F8812000F0D6F8CF2000F0D3F8D92037
:1006F00000F0D0F8F12000F0CDF8DB2000F0CAF8CF
:10070000302000F0C7F8A42000F0C4F8A62000F0C4
:10071000C1F88D2000F0BEF8142000F0BBF8AF2027
:1007200000F0B8F8FFF714FF70BD10B502460120C5
:1007300000E050430B1EA1F10101FAD110BD70B5CC
:1007400005460C4645F0B00000F0A4F8102141EA3F
:10075000141000F09FF804F00F0000F09BF870BD3B
:100760002DE9F04105460E461746721ED206110EBF
:100770006A1E5206100EFFF7E2FF002409E0A7F1FF
:100780002001134A02EB0111085D00F093F8601C90
:10079000C4B2082CF3DB721ED206110E6A1E0123AE
:1007A00003EB4202D0B2FFF7CAFF00240BE0A7F12F
:1007B0002001074A02EB011204F10801505C00F02D
:1007C00079F8601CC4B2082CF1DBBDE8F0810000B0
:1007D000EA0F00082DE9F04781460E4690461F4675
:1007E00000241DE0381B411E1020FFF79EFFB8FBC0
:1007F000F0F000F00F050A2D08DA05F13000C2B262
:100800003019C1B24846FFF7ABFF07E005F13700EA
:10081000C2B23019C1B24846FFF7A2FF601CC4B291
:10082000BC42DFDBBDE8F0872DE9F04780460E468D
:1008300017461D46002415E0281B411E0A20FFF71D
:1008400074FFB7FBF0F00A21B0FBF1F201FB1200DC
:1008500000F130093019C1B24A464046FFF780FF27
:10086000601CC4B2AC42E7DBBDE8F0872DE9F04183
:1008700007460E461546002407E02A5D3019C1B22E
:100880003846FFF76DFF601CC4B2285D0028F4D124
:10089000BDE8F08110B50446FFF7C2FE7820FFF7EF
:1008A00095FE0020FFF792FE2046FFF78FFEFFF730
:1008B000D1FE10BD10B50446FFF7B2FE7820FFF759
:1008C00085FE4020FFF782FE2046FFF77FFEFFF700
:1008D000C1FE10BD7047000029B1064A926902436B
:1008E000044B9A6104E0034A92698243014B9A6186
:1008F000704700000010024030B5002100220024A3
:1009000000232D4D6D6805F00C0121B1042905D09F
:10091000082923D105E0294D056022E0274D056017
:100920001FE0254D6D6805F47012234D6D6805F4C8
:100930008034022505EB92421CB9214D55430560D8
:100940000BE01D4D6D6805F400351DB11C4D554380
:10095000056002E0194D5543056002E0174D056042
:1009600000BF00BF144D6D6805F0F0010909154D79
:100970006B5C0568DD4045600F4D6D6805F4E06116
:10098000090A104D6B5C4568DD4085600A4D6D6855
:1009900005F46051C90A0B4D6B5C4568DD40C560CC
:1009A000054D6D6805F44041890B074D6B5CC568CA
:1009B000B5FBF3F5056130BD0010024000127A006E
:1009C00000093D0000000020100000202DE9F0414A
:1009D000044600252003471E06232A460121084617
:1009E000FFF7F8FE06233A4608210120FFF7F2FE42
:1009F0001CA201210220FFF739FF04232246062111
:100A00000220FFF711FF002628E018A20121032091
:100A1000FFF72CFF0423324603210846FFF704FFAB
:100A20004FF480521249284600F091FA00F0A2F8E3
:100A300005F580550FA201210420FFF717FF0623BB
:100A40002A4607210420FFF7C5FE0120FFF708FC16
:100A5000BD4201D9BDE8F081701C86B2A642D4DB4C
:100A600000BFF7E773697A653A000000693A000051
:100A700018000020616464723A00000070470000B2
:100A800000B587B001218803FFF726FF012104206C
:100A9000FFF722FF18208DF81B004FF40070ADF80F
:100AA000180003208DF81A0006A92148FFF7FBFB68
:100AB00048208DF81B004FF48060ADF8180003202B
:100AC0008DF81A0006A91A48FFF7EDFB4FF41650EF
:100AD00002900020ADF814000C20ADF812000020A8
:100AE000ADF81000ADF80E00ADF80C0002A91148E9
:100AF00000F0B2F9012240F225510E4800F086F9CB
:100B00004FF4A060FFF71AFD25208DF804000120A6
:100B10008DF807008DF805008DF8060001A8FFF795
:100B2000D5FC0121034800F02EF907B000BD0000FC
:100B3000000801400038014070B505460E4600240B
:100B400004E0285D00F006F8601C84B2B442F8DBD3
:100B500070BD000010B504462146054800F0EDF9CF
:100B600000BF8021024800F01AF90028F9D010BD1A
:100B70000038014010B54FF480510248FFF7DCFF08
:100B800010BD00001800002010B500F001F810BDE5
:100B90000CB50020019000903348006840F480308C
:100BA0003149086000BF3048006800F40030009010
:100BB0000198401C0190009818B90198B0F5A06FF9
:100BC000F1D12948006800F4003010B101200090F4
:100BD00001E0002000900098012843D123480068DC
:100BE00040F01000214908600846006820F003002A
:100BF00008600846006840F0020008601A48406833
:100C0000194948600846406848600846406840F412
:100C1000806048600846406820F47C1048600846C0
:100C2000406840F4E81048600846006840F0807072
:100C3000086000BF0C48006800F000700028F9D080
:100C40000948406820F003000749486008464068AA
:100C500040F00200486000BF0348406800F00C000C
:100C60000828F9D10CBD000000100240002002400D
:100C70007047000010B51348006840F001001149AA
:100C8000086008464068104908400E494860084618
:100C900000680E4908400B4908600846006820F4C7
:100CA000802008600846406820F4FE0048604FF449
:100CB0001F008860FFF768FF4FF00060044908607C
:100CC00010BD0000001002400000FFF8FFFFF6FE1C
:100CD00008ED00E010B540F225511E4800F06CF818
:100CE000012836D11B4800F023F9C4B21A48007815
:100CF00040B9FF2C27D1012017490870002017495F
:100D0000087020E014480078012810D114481349D5
:100D10000978445411480078401C1049087008466E
:100D2000007804280FDB02200B4908700BE00A480A
:100D30000078022807D1FE2C05D100200649087052
:100D400001200849087040F22551024800F00CF8D3
:100D500000BF10BD00380140150000201600002023
:100D6000181000201400002010B50022002340F6C7
:100D70006A14A14200D100BF0A1201249440A3B218
:100D8000DC43048010BD21B1828942F4005282818B
:100D900004E082894DF6FF731A4082817047024653
:100DA0000020B1F5007F00D100BF13880B400BB1CC
:100DB000012000E00020704770B5024600240023A7
:100DC0000025002040F66A16B14200D100BFC1F3F1
:100DD000421501F01F03012606FA03F3012D02D18B
:100DE0009689334006E0022D02D1168A334001E095
:100DF000968A33400C12012606FA04F41688344011
:100E000013B10CB1012000E0002070BDF0B5034625
:100E1000002400260025002040F66A17B94200D1C0
:100E200000BF1846C1F3421401F01F06012707FA5C
:100E300006F5012C01D10C3004E0022C01D1103058
:100E400000E014301AB107682F43076002E007681A
:100E5000AF430760F0BD00002DE9F04786B00546BE
:100E60000E460024A24600BFA1460027B08900B16B
:100E700000BF2F462C8A4CF6FF700440F0880443D4
:100E80002C82AC894EF6F3100440B08831890843B7
:100E9000718908430443AC81AC8A4FF6FF4004409B
:100EA000B0890443AC8201A8FFF726FD1F488742A2
:100EB00002D1DDF810A001E0DDF80CA0A88900F453
:100EC000004040B10AEBCA0000EB0A10316849004B
:100ED000B0FBF1F807E00AEBCA0000EB0A1031683A
:100EE0008900B0FBF1F86420B8FBF0F004012009A0
:100EF000642101FB1089A88900F4004040B1322030
:100F000000EBC900B0FBF1F000F00700044308E07B
:100F1000322000EB09106421B0FBF1F000F00F006B
:100F200004432C8106B0BDE8F08700000038014082
:100F300001468888C0F308007047C1F30802828028
:100F4000704700BFFEE710B5FFF74AFA10BD2DE964
:100F5000F04104460E46174600F020F8FFF770FAFD
:100F60000320FFF777FAC4F30740FFF773FAC4F3DF
:100F70000720FFF76FFAE0B2FFF76CFA002504E0F4
:100F8000FF20FFF767FA70556D1CBD42F8D3FFF7DD
:100F90005CFA00F003F8BDE8F081000010B50A4CDF
:100FA000FFF74EFA0520FFF755FA02E0641E04B978
:100FB00006E0FF20FFF74EFA00F001000028F5D10F
:100FC00000BFFFF742FA10BDA08601000320FFF723
:100FD00047F9FFF753FBFFF753FDFFF7B4FF0A2470
:100FE0002046FFF7F3FC00BFFEE700000000000012
:100FF00000000000000000000000000000F80000F9
:101000000000000000333000000000100C06100C3F
:101010000600000000000000000040C07840C078DA
:101020004000043F04043F040400007088FC0830C2
:101030000000001820FF211E0000F008F000E0185A
:10104000000000211C031E211E0000F00888700013
:1010500000001E2123241927211010160E00000065
:1010600000000000000000000000000000E0180484
:101070000200000000071820400000020418E000F1
:1010800000000040201807000000404080F0804031
:1010900040000202010F01020200000000F0000007
:1010A00000000101011F010101000000000000001B
:1010B000000080B070000000000000000000000090
:1010C0000000000101010101010100000000000019
:1010D00000000030300000000000000000008060D0
:1010E0001804006018060100000000E01008081055
:1010F000E000000F102020100F00001010F800007A
:1011000000000020203F2020000000700808088810
:1011100070000030282422213000003008888848E0
:1011200030000018202020110E000000C02010F810
:10113000000000070424243F240000F808888808E1
:1011400008000019212020110E0000E010888818E6
:101150000000000F112020110E0000380808C838C8
:1011600008000000003F00000000007088080888A8
:101170007000001C222121221C0000E01008081031
:10118000E0000000312222110F00000000C0C0006A
:10119000000000000030300000000000008000006F
:1011A000000000008060000000000000804020106F
:1011B0000800000102040810200040404040404068
:1011C00040000404040404040400000810204080CB
:1011D0000000002010080402010000704808080800
:1011E000F0000000003036010000C030C828E810D0
:1011F000E0000718272423140B000000C038E0008B
:101200000000203C23020227382008F888888870D4
:101210000000203F202020110E00C03008080808E0
:101220003800071820202010080008F808080810C7
:10123000E000203F202020100F0008F88888E808F0
:101240001000203F20202320180008F88888E80894
:101250001000203F200003000000C03008080838BC
:10126000000007182020221E020008F808000008CD
:10127000F808203F210101213F20000808F8080854
:1012800000000020203F2020000000000808F8088F
:101290000800C08080807F00000008F888C02818FF
:1012A0000800203F20012638200008F80800000030
:1012B0000000203F20202020300008F8F800F8F837
:1012C0000800203F003F003F200008F830C0000821
:1012D000F808203F200007183F00E0100808081019
:1012E000E0000F10202020100F0008F80808080860
:1012F000F000203F210101010000E0100808081063
:10130000E0000F18242438504F0008F88888888897
:101310007000203F2000030C30200070880808086F
:1013200038000038202121221C00180808F808087D
:1013300018000000203F2000000008F80800000806
:10134000F808001F202020201F000878880000C80F
:101350003808000007380E010000F80800F80008FF
:10136000F800033C0700073C030008186880806809
:10137000180820302C03032C30200838C800C83847
:1013800008000000203F2000000010080808C838AE
:1013900008002038262120201800000000FE02024C
:1013A00002000000007F40404000000C30C0000000
:1013B0000000000000010638C00000020202FE002A
:1013C0000000004040407F000000000004020202D4
:1013D0000400000000000000000000000000000009
:1013E00000008080808080808080000202040000F5
:1013F00000000000000000000000000080808080ED
:1014000000000019242222223F2008F800808000DA
:101410000000003F112020110E000000008080809D
:101420000000000E112020201100000000808088A4
:10143000F800000E112020103F20000080808080E6
:101440000000001F222222221300008080F08888E2
:1014500088180020203F202000000000808080802D
:101460008000006B94949493600008F80080808062
:101470000000203F210000203F20008098980000BD
:1014800000000020203F20200000000000809898ED
:10149000000000C08080807F000008F8000080808D
:1014A0008000203F24022D302000000808F80000B2
:1014B00000000020203F202000008080808080806D
:1014C0008000203F20003F20003F808000808080FF
:1014D0000000203F210000203F200000808080800D
:1014E0000000001F202020201F008080008080003E
:1014F000000080FFA12020110E00000000808080ED
:101500008000000E112020A0FF808080800080805D
:10151000800020203F21200001000000808080808A
:1015200080000033242424241900008080E080807F
:1015300000000000001F20200000808000000080CC
:101540008000001F202020103F208080800000802D
:10155000808000010E30080601008080008000803D
:1015600080800F300C030C300F00008080008080E2
:1015700080000020312E0E3120008080800000800D
:10158000808080818E7018060100008080808080BD
:1015900080000021302C2221300000000000807CDF
:1015A000020200000000003F404000000000FF0079
:1015B000000000000000FF0000000002027C80002C
:1015C00000000040403F0000000000060101020250
:1015D000040400000000000000000000FC150008EA
:1015E0000000002018000000280100081416000860
:1015F00018000020602600004401000800000000E0
:101600000102030401020304060708090204060894
:0416100000000000D6
:04000005080000ED02
:00000001FF
